:020000040800F2
:1000000010040020BD120008691200086B120008DD
:1000100000000000000000000000000000000000E0
:100020000000000000000000000000006F12000847
:1000300000000000000000007112000873120008A8
:10004000AF080008000000009F0900080B0F00081F
:1000500003100008D31100084712000853120008CB
:10006000000000007B120008E5120008E7120008FB
:10007000E9120008EB120008ED1200080000000071
:10008000EF1200080000000000000000F11200085C
:1000900000000000F3120008F5120008F712000833
:1000A00000000000F912000800000000FB12000828
:1000B00070B582B0040000252078C00770D5AB4829
:1000C00000680C210140042909D0A84800680C21CF
:1000D000014008290CD1A5480068C00308D5BB48D9
:1000E000006880035CD56068002859D1012033E2A4
:1000F0006068012807D1B5480068802149020143A2
:10010000B24801602DE0606800280CD1AF4800685B
:10011000AF490140AD480160AC480068AD490140BD
:10012000AA4801601DE0606805280ED1A748006854
:100130008021C9020143A5480160A44800688021CC
:1001400049020143A14801600BE0A0480068A049B2
:1001500001409E4801609D4800689E4901409B48BF
:100160000160606800280DD000F018FB050097487A
:100170000068800314D400F011FB401B6528F6D3FF
:100180000320E9E100F00AFB0500904800688003C5
:1001900006D500F003FB401B6528F6D30320DBE106
:1001A0002078800757D5714800680C21014000294C
:1001B00009D06E4800680C210140082916D16B480F
:1001C0000068C00312D481480068800704D5E06845
:1001D000012801D00120BFE17C480068F821884354
:1001E0002169C90001437948016034E0E0680028D2
:1001F0001DD076480068012101437448016000F079
:10020000CDFA050071480068800706D400F0C6FAF0
:10021000401B0328F6D303209EE16C480068F821B8
:1002200088432169C90001436848016013E06748B9
:100230000068012188436549086000F0AFFA0500B5
:1002400062480068800706D500F0A8FA401B032822
:10025000F6D3032080E1207800072AD5E069002842
:1002600013D0BE48006801210143BC48016000F082
:1002700095FA0500B948006880071AD400F08EFA94
:10028000401B0328F6D3032066E1B448006801212F
:100290008843B249086000F081FA0500AF48006861
:1002A000800706D500F07AFA401B0328F6D3032016
:1002B00052E12078400700D497E00026A848006863
:1002C000C0000FD4A6480068802149050143A44816
:1002D0000160A3480068802149050840009000980B
:1002E000012006009F480068C00514D49D4800689E
:1002F0008021490001439B48016000F04FFA05004E
:1003000098480068C00506D400F048FA401B6528EC
:10031000F6D3032020E1A068012806D192480068A6
:1003200001210143904801602EE0A06800280CD113
:100330008D480068012188438B4908608A4800681D
:1003400004218843884908601EE0A06805280FD171
:1003500085480068042101438348016082480068A1
:1003600001210143804801600EE000BF04100240FB
:100370007D480068012188437B4908607A4800680D
:100380000421884378490860A06800280ED000F056
:1003900005FA05007448006880071DD400F0FEF9D6
:1003A000401B72498842F5D30320D5E000F0F6F9EE
:1003B00005006D48006880070ED500F0EFF9401B7E
:1003C0006A498842F5D30320C6E000BF001002400E
:1003D000FFFFFEFFFFFFFBFFF6B2012E05D16048D5
:1003E0000068634901405E4801602078C00655D529
:1003F0006069012823D15F480068042101435D48FA
:1004000001605C480068012101435A48016000F026
:10041000C5F9050057480068800706D400F0BEF90A
:10042000401B0328F6D3032096E052480068F821C9
:100430008843A169C90001434E4801602EE060690C
:100440000421C94388420FD14A48006804218843E7
:100450004849086047480068F8218843A169C900F5
:1004600001434448016019E0424800680421014307
:10047000404801603F480068012188433D490860C9
:1004800000F08CF905003B480068800706D500F0B5
:1004900085F9401B0328F6D303205DE0206A00287D
:1004A00059D08D4800680C210140082951D0206A9C
:1004B00002283AD18948006889490140874801608B
:1004C00000F06CF9050085480068800106D500F051
:1004D00065F9401B0328F6D303203DE081480068FE
:1004E0000F218843E16A01437E4801607A48006831
:1004F0007D490140A06A0843616A01437648016072
:10050000764800688021490401437448016000F086
:1005100045F905007148006880011CD400F03EF9DF
:10052000401B0328F6D3032016E06C4800686C4992
:1005300001406A48016000F031F905006748006831
:10054000800108D500F02AF9401B0328F6D30320C8
:1005500002E0012000E0002076BD000024100240EF
:100560001C1002400070004020100240891300005F
:10057000FFFFFFEF3410024070B505000C000026AD
:100580007B4800680100C907C90FA1420FD2784813
:100590000068012188432043754908607448006859
:1005A0000100C907C90FA14201D0012092E02878BB
:1005B000800707D548480068F0218843A9680143AF
:1005C000454801602878C00752D56868012805D1E0
:1005D00042480068800310D401207BE0686802284C
:1005E00005D13E480068800107D4012072E03B48F5
:1005F0000068800701D401206CE0374800680321BF
:100600008843696801433448016000F0C7F8060078
:10061000686801280DD1304800680C210140042988
:1006200026D000F0BBF8801B52498842F3D3032048
:1006300050E0686802280DD1274800680C2101406D
:10064000082915D000F0AAF8801B4A498842F3D344
:1006500003203FE0204800680C210140002907D01A
:1006600000F09CF8801B43498842F3D3032031E01B
:100670003F4800680100C907C90F8C420FD23C48AF
:1006800000680121884320433949086038480068E0
:100690000100C907C90FA14201D001201AE0287842
:1006A000400707D50C48006833490140E868084313
:1006B0000949086000F01AF83049074A126812091F
:1006C0001207120F895CC8402D490860032000F012
:1006D0006BF8002070BD00000410024000100240C2
:1006E000FFFFFFFE2C100240FFFFC2FFF0B589B0F4
:1006F00005A82549102200F069F801A82349102215
:1007000000F064F800240020009000250026002757
:100710001C48006804000C202040042802D008284F
:1007200003D01DE01A4807001CE005A8A10C09072A
:10073000090F405C060001A8164909680907090F5E
:10074000405C0090E00306D51148009900F058F88D
:100750007043050002E01048704305002F0001E0DF
:100760000B480700380009B0F0BD05480068704725
:100770000020024089130000FFF8FFFFAC120008C0
:1007800008000020041002408C1200089C1200088F
:1007900000127A002C10024000093D000148006858
:1007A000704700BF6C04002010B50400FFF7DDFFA8
:1007B000FA21890000F024F800F0DFF8002221007F
:1007C0000020C04300F0CFF8002010BD70B4103AF4
:1007D00003D378C9103A78C0FBD2530701D318C9A4
:1007E00018C001D508C908C0D20704D30B880380FC
:1007F000891C801C002A01D50B78037070BC7047DF
:100800000022030A8B420BD203098B4219D2430800
:100810008B422ED2411A00D20146524110467047F7
:10082000FF2209023FD012068B4205D312120902A1
:100830008B4201D31212090203098B4219D300E043
:10084000090AC3098B4201D3CB01C01A5241830963
:100850008B4201D38B01C01A524143098B4201D311
:100860004B01C01A524103098B4201D30B01C01A3C
:100870005241C3088B4201D3CB00C01A52418308B6
:100880008B4201D38B00C01A524143088B4201D3E3
:100890004B00C01A5241884200D3401A5241CFD275
:1008A00001461046704708B500F078F808BDFEE72D
:1008B000F0B540B200281BD4334A40B28308042468
:1008C0006343D258FF238407A40F08256C43A34039
:1008D0009A438B01DBB28407A40F08256C43A34025
:1008E0001343294A40B2840804256C43135120E085
:1008F000264C40B20207120F083A950804225543CD
:10090000224A40B203071B0F083B9B08042673438F
:10091000D258FF238607B60F08277E43B3409A4379
:100920008B01DBB28607B60F08277E43B340134323
:100930006351F0BD10B50400601E80214904884257
:1009400001D301200EE0601E114908600321002040
:10095000C043FFF7ADFF00200E49086007200E4995
:100960000860002010BD70B504000D0016002900BD
:10097000200040B2FFF79CFF70BD10B504002000BE
:10098000FFF7D8FF10BD000000E400E01CED00E020
:1009900014E000E018E000E010E000E07047FEE73F
:1009A000F6B587B004001F000E9E07986060684689
:1009B000008C2081E7602682E0689021C90588428A
:1009C00006D08149884212D0804988421ED02BE04F
:1009D0007F4800688021890201437D4801607C488E
:1009E0000068802189020840009000981CE0784847
:1009F00000688021C902014375480160744800689D
:100A00008021C9020840009000980DE070480068FD
:100A10008021C90301436E4801606D480068802150
:100A2000C903084000900098208A0190012002909C
:100A3000022003900320049001A9E06800F0DAF896
:100A400060689021C905884206D05F49884212D06B
:100A50005E4988421ED02BE05D48006880218902F3
:100A600001435B4801605A480068802189020840C0
:100A7000009000981CE0564800688021C90201439C
:100A800053480160524800688021C9020840009024
:100A900000980DE04E4800688021C90301434C488E
:100AA00001604B4800688021C9030840009000980D
:100AB00020890190002002900020039003200490E0
:100AC00001A9606800F096F80022218AE06800F031
:100AD0008AF900253F480068022101433D48016032
:100AE0003C48006802210840009000983A4800689D
:100AF0003A49FFF785FE401E05003948394908602C
:100B000039483849C860ADB236484560002035499B
:100B10000861002033498860002032494861002084
:100B2000304988612F4800F07BF92E4800F094F995
:100B3000200000F009F8002100F0E8F901D80120B8
:100B400000E0002009B0F0BD70B504000020254988
:100B5000096848620022218AE06800F044F9012215
:100B6000218AE06800F03FF91E480068406A0F28BB
:100B7000FAD30022218AE06800F035F91748050011
:100B80002189606800F021F9002805D12800451E60
:100B90000028F5D1154815E000201249096848627F
:100BA0002189606800F011F90028F9D10D4800682A
:100BB000406A0600300000F0BDF90D4900F0C9F9A7
:100BC0002060206870BD0000000400480014004848
:100BD000141002401C1002400800002040420F0088
:100BE0000004004010040020FFFF0000000080BF50
:100BF0007AC18C3CF8B50200002300240025086867
:100C0000D840002800D1DFE0086801269E40064059
:100C10003400002C00D1D5E04868022802D0486892
:100C200012281BD1D808042670431018006A05004A
:100C30000F201E007607760F04277E43B0408543C1
:100C400008691E007607760F04277E43B0402843CC
:100C50000500D808042670431018056210680500C6
:100C600003201E0002277E43B04085430879800799
:100C7000800F1E0002277E43B04028430500156008
:100C80004868012808D04868022805D0486811281B
:100C900002D0486812281CD19068050003201E006D
:100CA00002277E43B0408543C8681E0002277E436A
:100CB000B040284305009560506805000120984029
:100CC000854348680600F606F60F9E402E43350021
:100CD0005560D068050003201E0002277E43B04007
:100CE000854388681E0002277E43B04028430500E4
:100CF000D5604868C00065D54048006801260643B5
:100D00003E4806603D4800680600F607F60F00966C
:100D100000983B489E0804277E43805905000F2019
:100D20001E00B607B60F04277E43B04085439020CF
:100D3000C005824201D100200FE03248824201D139
:100D400001200AE03048824201D1022005E02F480C
:100D5000824201D1032000E005201E00B607B60F35
:100D600004277E43B0402843050025489E080427F9
:100D70007E438551264800680500A5434868C003A6
:100D800000D5254322480560224800680500A54398
:100D90004868800300D525431E4805601E4800684A
:100DA0000500A5434868C00200D525431A480560E0
:100DB0001A4800680500A5434868800200D525430D
:100DC000164805605B1C1AE7F1BD00B50200136907
:100DD00089B20B40002B02D00123180001E0002350
:100DE0001800C0B200BD00B5D2B2002A02D089B24C
:100DF000816101E089B2816200BD000018100240EB
:100E0000080001400004004800080048000C0048A9
:100E10000004014004040140080401400C040140A6
:100E200010B50400002C01D1012014E03D20205C0D
:100E3000002805D100203C216054200000F064F817
:100E400002203D216054211D206800F014F801208B
:100E50003D216054002010BD010002203D22885435
:100E600008680068012202430868026001203D22F0
:100E700088540020704700B5002203681A001C4BFC
:100E8000984202D01B4B984204D170239A4313001E
:100E90004A681A43164B98420BD0164B984208D01A
:100EA000154B984205D0154B984202D0144B9842EE
:100EB00005D11300134A1A401300CA681A4380234D
:100EC0009A4313004A691A4302608B68C3620B6835
:100ED0008362074B984205D0084B984202D0084BDA
:100EE000984201D10B6903630123436100BD0000F7
:100EF000002C01400004004000200040004401405C
:100F000000480140FFFCFFFF7047FEE70CB40122E0
:100F100012060318DA4207D84B18DA4204D8020046
:100F20000A43921802D281420CBC7047FCD088421E
:100F30000CBC70479D2102000AD002D4491E9218B1
:100F4000FCD5C905100A1206524100D3012A4841B6
:100F5000704730B405004D400122D20715404B18B0
:100F60000418240E2ED01B0E32D0FF2C34D0FF2BB1
:100F70003AD0E4180002090210431143000A090A9A
:100F80009446C2B24A43000AC3B24B43000A4843E4
:100F9000110A5B181A43D2B2190A091801D4491868
:100FA000641E080A7F3C23DBFE2C08DAE4050906F0
:100FB0001143634699416041284330BC7047FF208C
:100FC000C005F9E728001B0EFF2BF6D1D043F4E74C
:100FD0002800FF2CF1D1F9E74002F7D1FF2B01D116
:100FE0004902F3D1E005E7E7D8054902E4D0EDE78F
:100FF00043020020641CDFD15B129B1CDCD9D805A6
:10100000DAE7FEE71948006801210143174801604B
:1010100017480068174901401548016013480068E7
:10102000154901401148016010480068134901400A
:101030000E4801600E480068114901400C480160EB
:10104000104800680F2188430E4908600E48006868
:101050000E4901400C4801600D4800680121884399
:101060000B49086000200B490860704700100240DF
:10107000041002400CB8FF08FFFFF6FEFFFFFBFF65
:10108000FFFFC0FF2C10024030100240ECFEFFFFBB
:10109000341002400810024080B500F033F800F030
:1010A00009F800F03FF800F04DF801490860FAE750
:1010B0006404002000B591B00020049002200C9040
:1010C00000200D9000200F90A02080030E9004A817
:1010D000FEF7EEFF002801D000F012F80720009084
:1010E0000220019000200290002003900121684618
:1010F000FFF742FA002801D000F002F811B000BD5D
:1011000000B5FEE780B50648006810210143044899
:1011100001600320FFF748FB00F024F8002002BD27
:101120000020024010B582B0802000909023DB05A3
:10113000102208490848094C2468A0470748084974
:10114000086013BD80B504480549096849688847A7
:1011500002BD0000000400485004002000000020F0
:1011600068040020704770B40121002213E0046875
:10117000001D0C4202D04D466D1E64192260241DD4
:101180001B1F042BFAD225009E0701D52280AD1C1F
:101190000B4000D02A700368001D002BE7D170BC03
:1011A000704730B401210268001D002A0FD0036887
:1011B000C318446808300C4202D04D466D1E6419B5
:1011C0001D6825601B1D241D121FECD0F8E730BCE4
:1011D0007047FEE710B5074979441831064C7C4446
:1011E000163404E0081D0A68891888470100A142E6
:1011F000F8D110BD08000000280000006BFFFFFFC1
:1012000060000000100400200000000097FFFFFFB6
:101210000C000000C40000000000002000000000DE
:1012200000F00BF8002801D0FFF7D4FF002000BF2A
:1012300000BFFFF731FF00F002F80120704780B5D2
:1012400000F002F801BDFEE70746384600F002F85C
:10125000FBE7FEE780B500BF00BF024A110018207F
:10126000ABBEFBE726000200704700B5FEE7704703
:10127000704780B500F002F801BDFEE70248006843
:10128000401C0149086070476C04002002030405FB
:10129000060708090A0B0C0D0E0F101001020304BB
:1012A00005060708090A0B0C0D0E0F1000000000C0
:1012B00000000000010203040607080901488047F6
:1012C0000148004705100008CD12000800BF00BF0C
:1012D00000BF00BFFFF7A4FFA1090008490B0008E9
:1012E00000127A00FEE7FEE7FEE7FEE7FEE7FEE714
:0C12F000FEE7FEE7FEE7FEE7FEE7FEE794
:04000005080012CD10
:00000001FF
