:020000040800F2
:100000002804002089200008352000083720000837
:1000100000000000000000000000000000000000E0
:100020000000000000000000000000003B2000086D
:1000300000000000000000003D2000083F200008F4
:10004000D311000800000000C31200082F18000898
:10005000271900087B1F0008132000081F20000834
:100060000000000047200008A5200008A720000885
:10007000A9200008AB200008AD2000080000000007
:10008000AF2000080000000000000000B1200008C0
:1000900000000000B3200008B5200008B7200008C9
:1000A00000000000B920000800000000BB2000088C
:1000B00010B50400002C01D101205EE04120205C3D
:1000C000002805D1002040216054200000F080FC71
:1000D0002420412160542068006801218843216860
:1000E00008606068364901402068016120688068C6
:1000F0003449014020688160E068012806D1A06889
:100100008021090201432068816005E0A068842104
:100110000902014320688160E068022803D1802041
:100120000001216848602068406827490143206831
:1001300041602068C068234901402068C16020698F
:1001400061690143A069000208432168C860E06951
:10015000216A014320680160206800680121014391
:10016000206801600020606420204121605400204C
:100170002063002042216054002010BD10B504000F
:10018000002C01D1012019E0242041216054206875
:1001900000680121884321680860200000F019FCF4
:1001A0000020606400204121605400202063002072
:1001B00042216054002040216054002010BD000006
:1001C000FFFFFFF0FF7FFFFF00800002FCB583B060
:1001D00004000E000C9F00254120205C202800D048
:1001E000D5E00A98002803D06846808D002801D108
:1001F0000120CDE04020205C012801D10220C7E091
:1002000001204021605400F0E5FB05000095192312
:10021000012280210902200000F0FFFA002801D00D
:100220000320B5E021204121605440204221605448
:10023000002060640A9860626846808D60850020B6
:100240006063019500976846038A68468289310099
:1002500089B2200000F033FA00280CD0606C04282A
:1002600004D1002040216054012091E00020402171
:10027000605403208CE0608DFF280DD9FF2020857D
:100280000020009080235B04228DD2B2310089B21D
:10029000200000F081FB0CE0608D208500200090A4
:1002A00080239B04228DD2B2310089B2200000F05D
:1002B00073FB2A003900200000F0D8FA002806D08D
:1002C000606C042801D1012062E0032060E0606AD4
:1002D000411C6162007821688862608D401E6085E3
:1002E000208D401E2085208D00282BD1608D002878
:1002F00028D000953B0000228021200000F08DFADC
:10030000002801D0032043E0608DFF280DD9FF2095
:1003100020850020009080235B04228DD2B2310022
:1003200089B2200000F038FB0CE0608D20850020B1
:10033000009080239B04228DD2B2310089B220002C
:1003400000F02AFB608D0028B3D12A00390020007C
:1003500000F0B9FA002806D0606C042801D1012011
:1003600016E0032014E020202168C861206840685E
:100370007A490140206841602020412160540020DA
:1003800042216054002040216054002000E00220FF
:1003900005B0F0BDFCB583B004000E000C9F002535
:1003A0004120205C202800D0D4E00A98002803D007
:1003B0006846808D002801D10120CCE04020205CDF
:1003C000012801D10220C6E001204021605400F044
:1003D00001FB05000095192301228021090220005C
:1003E00000F01BFA002801D00320B4E022204121B4
:1003F0006054402042216054002060640A9860628A
:100400006846808D6085002060630195009768468E
:10041000038A68468289310089B2200000F09DF984
:1004200000280CD0606C042804D1002040216054C6
:10043000012090E000204021605403208BE0608D7B
:10044000FF280ED9FF202085902080010090802376
:100450005B04228DD2B2310089B2200000F09CFAF8
:100460000DE0608D208590208001009080239B040A
:10047000228DD2B2310089B2200000F08DFA0095B1
:100480003B0000220421200000F0C7F9002801D021
:10049000032060E0606A411C61622168496A017062
:1004A000208D401E2085608D401E6085208D002897
:1004B0002BD1608D002828D000953B0000228021A0
:1004C000200000F0AAF9002801D0032043E0608D4D
:1004D000FF280DD9FF2020850020009080235B0499
:1004E000228DD2B2310089B2200000F055FA0CE022
:1004F000608D20850020009080239B04228DD2B245
:10050000310089B2200000F047FA608D0028B6D192
:100510002A003900200000F0D6F9002806D0606CCF
:10052000042801D1012016E0032014E020202168D6
:10053000C861206840680949014020684160202066
:100540004121605400204221605400204021605429
:10055000002000E0022005B0F0BD000000E800FE31
:10056000F2B582B0040017001D00002600200190A3
:100570004120205C202800D09AE020688069000497
:1005800001D5022095E04020205C012801D1022005
:100590008FE001204021605424204121605400203C
:1005A0006064E068012806D1684600898105890DEC
:1005B0004048084306E0684600898105890DA0206F
:1005C000800108432168486000F004FA06002068B2
:1005D000806980061AD420688069C00616D441203C
:1005E000205CA02812D00020C0438542EFD0002D0F
:1005F00004D000F0EFF9801B8542E8D22020412191
:100600006054002040216054032052E0206880693B
:10061000C00615D400962B0000222021200000F0F7
:10062000FCF8002801D0032043E020202168C861A5
:10063000202041216054002040216054002038E0F7
:1006400000962B0000222021200000F0E6F8002870
:1006500001D003202DE010202168C86120202168EE
:10066000C86101980100491C0191B84214D1206869
:1006700040688021C90101432068416000962B0039
:1006800000222021200000F0C8F8002801D003201B
:100690000FE020202168C8610198B84200D280E7AD
:1006A000202041216054002040216054032000E0BC
:1006B0000220FEBD002000024121405C7047FBB5D6
:1006C00004001700089E099D80208001009080236F
:1006D0005B0468460289D2B268468188200000F037
:1006E0005BF92A003100200000F0C0F8002806D095
:1006F000606C042801D101202EE003202CE0684624
:100700000089012804D13800C0B22168886217E04E
:10071000380080B2000AC0B2216888622A00310025
:10072000200000F0A3F8002806D0606C042801D156
:10073000012011E003200FE03800C0B22168886278
:100740000095330000228021200000F066F8002888
:1007500001D0032000E00020FEBDFBB5040017001F
:10076000089E099D80208001009000236846028930
:10077000D2B268468188200000F00EF92A003100CC
:10078000200000F073F8002806D0606C042801D126
:1007900001202EE003202CE068460089012804D1C6
:1007A0003800C0B22168886217E0380080B2000AC1
:1007B000C0B2216888622A003100200000F056F89B
:1007C000002806D0606C042801D1012011E003202C
:1007D0000FE03800C0B22168886200953300002223
:1007E0004021200000F019F8002801D0032000E08B
:1007F0000020FEBD00B501688969890702D5002186
:100800000268916201688969C90705D4016889692C
:1008100001220A4301688A6100BDF4B504000F009B
:100820001D00069E206880693840B84201D1012031
:1008300000E0002069460978884215D10020C043B5
:100840008542EFD0002D04D000F0C4F8801B854213
:10085000E8D2202041216054002042216054002031
:1008600040216054032000E00020F2BD70B5040078
:100870000D00160020688069800722D4320029000C
:10088000200000F049F8002801D001201AE00020E3
:10089000C0438542EED0002D04D000F09BF8801BB1
:1008A0008542E7D2606C2021014361642020412110
:1008B00060540020422160540020402160540320F5
:1008C00000E0002070BD70B504000D001600206827
:1008D000806980061ED432002900200000F01CF838
:1008E000002801D0012016E0002D04D000F072F89D
:1008F000801B8542EBD2606C202101436164202083
:100900004121605400204221605400204021605465
:10091000032000E0002070BD70B504000D0016003B
:1009200020688069C00635D520688069800615D4A6
:100930000020C0438542F7D0002D04D000F04AF8D3
:10094000801B8542F0D220204121605400204221AA
:10095000605400204021605403201CE010202168D6
:10096000C86120202168C8612000FFF743FF20688C
:1009700040681549014020684160042060642020DF
:1009800041216054002042216054002040216054E5
:10099000012000E0002070BDF0B4049C0025066832
:1009A000766835002E00094D35402F0089B28E053E
:1009B000B60DD2B2150435431D4325433D430668A9
:1009C0007560F0BC7047000000E800FE009800FC75
:1009D0007047704701480068704700BFD00400208E
:1009E00070B582B0040000252078C00770D5AB48F0
:1009F00000680C210140042909D0A84800680C2196
:100A0000014008290CD1A5480068C00308D5BB489F
:100A1000006880035CD56068002859D1012033E26A
:100A20006068012807D1B548006880214902014368
:100A3000B24801602DE0606800280CD1AF48006822
:100A4000AF490140AD480160AC480068AD49014084
:100A5000AA4801601DE0606805280ED1A74800681B
:100A60008021C9020143A5480160A4480068802193
:100A700049020143A14801600BE0A0480068A04979
:100A800001409E4801609D4800689E4901409B4886
:100A90000160606800280DD0FFF79CFF05009748B3
:100AA0000068800314D4FFF795FF401B6528F6D338
:100AB0000320E9E1FFF78EFF0500904800688003FE
:100AC00006D5FFF787FF401B6528F6D30320DBE13F
:100AD0002078800757D5714800680C210140002913
:100AE00009D06E4800680C210140082916D16B48D6
:100AF0000068C00312D481480068800704D5E0680C
:100B0000012801D00120BFE17C480068F82188431A
:100B10002169C90001437948016034E0E068002898
:100B20001DD0764800680121014374480160FFF739
:100B300051FF050071480068800706D4FFF74AFF9F
:100B4000401B0328F6D303209EE16C480068F8217F
:100B500088432169C90001436848016013E0674880
:100B600000680121884365490860FFF733FF0500ED
:100B700062480068800706D5FFF72CFF401B03285A
:100B8000F6D3032080E1207800072AD5E069002809
:100B900013D0BE48006801210143BC480160FFF743
:100BA00019FF0500B948006880071AD4FFF712FF43
:100BB000401B0328F6D3032066E1B44800680121F6
:100BC0008843B2490860FFF705FF0500AF48006899
:100BD000800706D5FFF7FEFE401B0328F6D303204F
:100BE00052E12078400700D497E00026A84800682A
:100BF000C0000FD4A6480068802149050143A448DD
:100C00000160A348006880214905084000900098D1
:100C1000012006009F480068C00514D49D48006864
:100C20008021490001439B480160FFF7D3FE050086
:100C300098480068C00506D4FFF7CCFE401B652825
:100C4000F6D3032020E1A068012806D1924800686D
:100C500001210143904801602EE0A06800280CD1DA
:100C60008D480068012188438B4908608A480068E4
:100C700004218843884908601EE0A06805280FD138
:100C80008548006804210143834801608248006868
:100C900001210143804801600EE000BF04100240C2
:100CA0007D480068012188437B4908607A480068D4
:100CB0000421884378490860A06800280ED0FFF717
:100CC00089FE05007448006880071DD4FFF782FE86
:100CD000401B72498842F5D30320D5E0FFF77AFE26
:100CE00005006D48006880070ED5FFF773FE401BB6
:100CF0006A498842F5D30320C6E000BF00100240D5
:100D0000FFFFFEFFFFFFFBFFF6B2012E05D160489B
:100D10000068634901405E4801602078C00655D5EF
:100D20006069012823D15F480068042101435D48C0
:100D300001605C480068012101435A480160FFF7E7
:100D400049FE050057480068800706D4FFF742FEB9
:100D5000401B0328F6D3032096E052480068F82190
:100D60008843A169C90001434E4801602EE06069D3
:100D70000421C94388420FD14A48006804218843AE
:100D80004849086047480068F8218843A169C900BC
:100D900001434448016019E04248006804210143CE
:100DA000404801603F480068012188433D49086090
:100DB000FFF710FE05003B480068800706D5FFF7E7
:100DC00009FE401B0328F6D303205DE0206A0028BB
:100DD00059D08D4800680C210140082951D0206A63
:100DE00002283AD189480068894901408748016052
:100DF000FFF7F0FD050085480068800106D5FFF784
:100E0000E9FD401B0328F6D303203DE0814800683C
:100E10000F218843E16A01437E4801607A480068F7
:100E20007D490140A06A0843616A01437648016038
:100E30007648006880214904014374480160FFF747
:100E4000C9FD05007148006880011CD4FFF7C2FD90
:100E5000401B0328F6D3032016E06C4800686C4959
:100E600001406A480160FFF7B5FD0500674800686A
:100E7000800108D5FFF7AEFD401B0328F6D3032001
:100E800002E0012000E0002076BD000024100240B6
:100E90001C10024000700040201002408913000026
:100EA000FFFFFFEF3410024070B505000C00002674
:100EB0007B4800680100C907C90FA1420FD27848DA
:100EC0000068012188432043754908607448006820
:100ED0000100C907C90FA14201D0012092E0287882
:100EE000800707D548480068F0218843A968014376
:100EF000454801602878C00752D56868012805D1A7
:100F000042480068800310D401207BE06868022812
:100F100005D13E480068800107D4012072E03B48BB
:100F20000068800701D401206CE037480068032185
:100F300088436968014334480160FFF74BFD0600B0
:100F4000686801280DD1304800680C21014004294F
:100F500026D0FFF73FFD801B52498842F3D3032080
:100F600050E0686802280DD1274800680C21014034
:100F7000082915D0FFF72EFD801B4A498842F3D37C
:100F800003203FE0204800680C210140002907D0E1
:100F9000FFF720FD801B43498842F3D3032031E053
:100FA0003F4800680100C907C90F8C420FD23C4876
:100FB00000680121884320433949086038480068A7
:100FC0000100C907C90FA14201D001201AE0287809
:100FD000400707D50C48006833490140E8680843DA
:100FE0000949086000F01AF83049074A12681209E6
:100FF0001207120F895CC8402D490860032000F0D9
:1010000065F8002070BD000004100240001002408E
:10101000FFFFFFFE2C100240FFFFC2FFF0B589B0BA
:1010200005A82549102200F063F801A823491022E1
:1010300000F05EF800240020009000250026002724
:101040001C48006804000C202040042802D0082816
:1010500003D01DE01A4807001CE005A8A10C0907F1
:10106000090F405C060001A8164909680907090F25
:10107000405C0090E00306D51148009900F052F85A
:101080007043050002E01048704305002F0001E0A6
:101090000B480700380009B0F0BD054800687047EC
:1010A0000020024089130000FFF8FFFF78200008AD
:1010B000200000200410024058200008682000088A
:1010C00000127A002C10024000093D0010B5040007
:1010D000FFF7E3FFFA21890000F024F800F0DFF8C1
:1010E000002221000020C04300F0CFF8002010BDF6
:1010F00070B4103A03D378C9103A78C0FBD25307C2
:1011000001D318C918C001D508C908C0D20704D333
:101110000B880380891C801C002A01D50B78037082
:1011200070BC70470022030A8B420BD203098B422A
:1011300019D243088B422ED2411A00D201465241A5
:1011400010467047FF2209023FD012068B4205D39A
:10115000121209028B4201D31212090203098B42B7
:1011600019D300E0090AC3098B4201D3CB01C01A8D
:10117000524183098B4201D38B01C01A524143096A
:101180008B4201D34B01C01A524103098B4201D358
:101190000B01C01A5241C3088B4201D3CB00C01AC5
:1011A000524183088B4201D38B00C01A524143083D
:1011B0008B4201D34B00C01A5241884200D3401ADF
:1011C0005241CFD201461046704708B500F078F87A
:1011D00008BDFEE7F0B540B200281BD4334A40B248
:1011E000830804246343D258FF238407A40F0825EF
:1011F0006C43A3409A438B01DBB28407A40F0825FC
:101200006C43A3401343294A40B2840804256C432D
:10121000135120E0264C40B20207120F083A9508FD
:1012200004225543224A40B203071B0F083B9B0888
:1012300004267343D258FF238607B60F08277E4340
:10124000B3409A438B01DBB28607B60F08277E4373
:10125000B34013436351F0BD10B50400601E8021FC
:101260004904884201D301200EE0601E1149086044
:1012700003210020C043FFF7ADFF00200E490860A6
:1012800007200E490860002010BD70B504000D0055
:1012900016002900200040B2FFF79CFF70BD10B57A
:1012A00004002000FFF7D8FF10BD000000E400E0BC
:1012B0001CED00E014E000E018E000E010E000E0C9
:1012C0007047FEE7F6B587B004001F000E9E079832
:1012D00060606846008C2081E7602682E06890218B
:1012E000C905884206D08149884212D08049884287
:1012F0001ED02BE07F4800688021890201437D4891
:1013000001607C48006880218902084000900098B4
:101310001CE0784800688021C902014375480160DB
:10132000744800688021C9020840009000980DE0D0
:10133000704800688021C90301436E4801606D4810
:1013400000688021C903084000900098208A01901D
:1013500001200290022003900320049001A9E0687C
:1013600000F0DAF860689021C905884206D05F492C
:10137000884212D05E4988421ED02BE05D4800684A
:101380008021890201435B4801605A48006880213E
:1013900089020840009000981CE0564800688021AF
:1013A000C902014353480160524800688021C902C4
:1013B0000840009000980DE04E4800688021C90365
:1013C00001434C4801604B4800688021C903084034
:1013D0000090009820890190002002900020039046
:1013E0000320049001A9606800F096F80022218A89
:1013F000E06800F08AF900253F48006802210143B7
:101400003D4801603C480068022108400090009877
:101410003A4800683A49FFF785FE401E0500394802
:101420003949086039483849C860ADB23648456026
:101430000020354908610020334988600020324986
:1014400048610020304988612F4800F07BF92E4820
:1014500000F094F9200000F009F8002100F0E8F90C
:1014600001D8012000E0002009B0F0BD70B50400F3
:1014700000202549096848620022218AE06800F0BE
:1014800044F90122218AE06800F03FF91E48006813
:10149000406A0F28FAD30022218AE06800F035F96B
:1014A000174805002189606800F021F9002805D15E
:1014B0002800451E0028F5D1154815E000201249E6
:1014C000096848622189606800F011F90028F9D1A3
:1014D0000D480068406A0600300000F0BDF90D4973
:1014E00000F0C9F92060206870BD000000040048C9
:1014F00000140048141002401C100240200000207C
:1015000040420F000004004074040020FFFF000070
:10151000000080BF7AC18C3CF8B502000023002493
:1015200000250868D840002800D1DFE008680126BF
:101530009E4006403400002C00D1D5E048680228C7
:1015400002D0486812281BD1D8080426704310180E
:10155000006A05000F201E007607760F04277E43E1
:10156000B040854308691E007607760F04277E4346
:10157000B04028430500D8080426704310180562BF
:101580001068050003201E0002277E43B0408543FB
:1015900008798007800F1E0002277E43B040284351
:1015A000050015604868012808D04868022805D061
:1015B0004868112802D0486812281CD1906805009C
:1015C00003201E0002277E43B0408543C8681E00EA
:1015D00002277E43B040284305009560506805000F
:1015E00001209840854348680600F606F60F9E40A5
:1015F0002E4335005560D068050003201E000227E9
:101600007E43B040854388681E0002277E43B04079
:1016100028430500D5604868C00065D5404800688B
:10162000012606433E4806603D4800680600F6076E
:10163000F60F009600983B489E0804277E43805989
:1016400005000F201E00B607B60F04277E43B040EA
:1016500085439020C005824201D100200FE032482E
:10166000824201D101200AE03048824201D10220A9
:1016700005E02F48824201D1032000E005201E0032
:10168000B607B60F04277E43B0402843050025481F
:101690009E0804277E438551264800680500A5431F
:1016A0004868C00300D525432248056022480068E9
:1016B0000500A5434868800300D525431E48056002
:1016C0001E4800680500A5434868C00200D52543B0
:1016D0001A4805601A4800680500A543486880025A
:1016E00000D52543164805605B1C1AE7F1BD00B51F
:1016F0000200136989B20B40002B02D001231800AD
:1017000001E000231800C0B200BD00B5D2B2002A2B
:1017100002D089B2816101E089B2816200BD00001E
:10172000181002400800014000040048000800486A
:10173000000C00480004014004040140080401407A
:101740000C04014010B50400002C01D1012014E06C
:101750003D20205C002805D100203C216054200061
:1017600000F064F802203D216054211D206800F043
:1017700014F801203D216054002010BD010002201A
:101780003D2288540868006801220243086802600C
:1017900001203D2288540020704700B500220368D4
:1017A0001A001C4B984202D01B4B984204D1702364
:1017B0009A4313004A681A43164B98420BD0164BB3
:1017C000984208D0154B984205D0154B984202D04C
:1017D000144B984205D11300134A1A401300CA68EB
:1017E0001A4380239A4313004A691A4302608B68A4
:1017F000C3620B688362074B984205D0084B98423E
:1018000002D0084B984201D10B6903630123436165
:1018100000BD0000002C01400004004000200040FA
:101820000044014000480140FFFCFFFF7047FEE715
:101830000CB4012212060318DA4207D84B18DA4218
:1018400004D802000A43921802D281420CBC7047AD
:10185000FCD088420CBC70479D2102000AD002D403
:10186000491E9218FCD5C905100A1206524100D330
:10187000012A4841704730B405004D400122D2078B
:1018800015404B180418240E2ED01B0E32D0FF2CFE
:1018900034D0FF2B3AD0E418000209021043114360
:1018A000000A090A9446C2B24A43000AC3B24B4333
:1018B000000A4843110A5B181A43D2B2190A0918E0
:1018C00001D44918641E080A7F3C23DBFE2C08DA89
:1018D000E40509061143634699416041284330BC41
:1018E0007047FF20C005F9E728001B0EFF2BF6D13B
:1018F000D043F4E72800FF2CF1D1F9E74002F7D1FB
:10190000FF2B01D14902F3D1E005E7E7D8054902F1
:10191000E4D0EDE743020020641CDFD15B129B1C86
:10192000DCD9D805DAE7FEE710B582B08020009058
:101930009023DB0510226A496A486B4C2468A04753
:1019400069488249086013BD80B566487F490968C7
:101950004968884702BD80B57D48FEF7ADFE002886
:1019600020D17C487A4908607B487949486000204A
:101970007749886001207649C86000207449086171
:101980000020734948610020714988610020704936
:10199000C86100206E4908626D4800F05AF86C4832
:1019A000FEF786FB01BDF3B583B017001E000A9D4C
:1019B00000246A4800680290280080B201900096D6
:1019C0003B009BB26846027C92B2684681896048BF
:1019D000FEF7E0FC0400E4B2002C01D000F031F886
:1019E0002000C0B205B0F0BD38B505000C005B4862
:1019F00003682200290089B25548FEF7B1FD32BDC7
:101A0000F3B583B017001E000A9D002453480068F8
:101A10000290280080B2019000963B009BB268467D
:101A2000027C92B2684681894948FEF7CFFB0400E8
:101A3000E4B2002C01D000F004F82000C0B205B0E0
:101A4000F0BD80B54248FEF799FBFFF784FF01BD6A
:101A5000000010B58AB004002020019010200490EE
:101A600001A800F085F83E48006880218902014302
:101A70003B4801603A480068802189020840009094
:101A80000098C020C0000590122006900120079009
:101A9000032008900120099005A99020C005FFF7B8
:101AA0003BFD304800688021890301432D480160D7
:101AB0002C480068802189030840009000982A483B
:101AC0000068802189030143274801602648006897
:101AD00026490140244801600AB010BD0000000002
:101AE00000040048B40400200000002080B5FFF787
:101AF00032FF01BDF8B507000E0014001D002800DC
:101B000080B20090330001222100C9B2380080B2B7
:101B1000FFF776FFF1BDF8B507000E0014001D00B9
:101B2000280080B20090330001222100C9B23800A1
:101B300080B2FFF738FFF1BD38B505000C00210079
:101B4000280080B2FFF750FF80B232BDCC040020E5
:101B50002804002000540040130F42B01C00002055
:101B6000141002401C10024010100240FFFFDFFF63
:101B7000F8B50400002500262068C00371D50027B1
:101B800044480068C0000FD44248006880214905DD
:101B90000143404801603F480068802149050840F2
:101BA00000900098012007003B480068C00514D44D
:101BB0003948006880214900014337480160FEF739
:101BC00009FF050034480068C00506D4FEF702FF8F
:101BD000401B6528F6D303205AE030480068C02136
:101BE000890001400E00002E2AD06068C0218900C3
:101BF00001408E4224D029480068294901400E0046
:101C00002648006880214902014324480160234896
:101C10000068244901402148016020480660F0071F
:101C20000ED5FEF7D7FE05001C480068800707D4D4
:101C3000FEF7D0FE401B1C498842F5D3032027E065
:101C40001648006816490140606808431349086057
:101C5000FFB2012F05D10F480068144901400D481B
:101C600001602078C00707D5114800680321884328
:101C7000A16801430E4801602078800607D50C4812
:101C8000006810218843E168014309480160002091
:101C9000F2BD00001C100240007000402010024005
:101CA000FFFCFFFFFFFFFEFF89130000FFFFFFEFB8
:101CB0003010024038B505000C000220694608705B
:101CC0006846007821780143684601700123E622C6
:101CD0006946280080B2FFF70DFF31BD38B5050019
:101CE0000C00FFF703FF2100280080B2FFF724FF5C
:101CF000C0B232BD10B582B0040000206946087041
:101D00000123E7226946200080B2FFF704FF6846FE
:101D1000007816BD38B504000D0000206946088023
:101D2000EDB2002D02D0012D08D00EE00223E322F7
:101D30006946200080B2FFF7EEFE06E00223F322A0
:101D40006946200080B2FFF7E6FE6846008832BD93
:101D500038B504000D00002069460880EDB2002D62
:101D600002D0012D08D00EE00223E32269462000B4
:101D700080B2FFF7D0FE06E00223F322694620007E
:101D800080B2FFF7C8FE6846008832BD1948006877
:101D900001210143174801601748006817490140B5
:101DA0001548016013480068154901401148016059
:101DB00010480068134901400E4801600E48006851
:101DC000114901400C480160104800680F21884308
:101DD0000E4908600E4800680E4901400C48016039
:101DE0000D480068012188430B49086000200B4919
:101DF0000860704700100240041002400CB8FF0851
:101E0000FFFFF6FEFFFFFBFFFFFFC0FF2C100240AD
:101E100030100240ECFEFFFF341002400810024078
:101E200080B500F035F800F00BF8FFF77DFD00F00D
:101E30003FF8FFF789FD01490860FAE7C804002070
:101E400000B591B00020049002200C9000200D906D
:101E500000200F90A02080030E9004A8FEF7C0FD84
:101E6000002801D000F012F8072000900220019015
:101E7000002002900020039001216846FFF714F82B
:101E8000002801D000F002F811B000BD00B5FEE757
:101E900080B5064800681021014304480160032012
:101EA000FFF714F900F032F8002002BD00200240D4
:101EB00010B582B0012432218020114A5268904727
:101EC000002808D180200F4908800D480E4908607D
:101ED0000020040001E001200400E4B2002C0BD13A
:101EE000002069460870694606480088064A12685C
:101EF0001268904700200400E4B2200016BD0000E4
:101F000008000020D8040020D4040020704770B4DA
:101F10000121002213E00468001D0C4202D04D464E
:101F20006D1E64192260241D1B1F042BFAD225008C
:101F30009E0701D52280AD1C0B4000D02A7003689B
:101F4000001D002BE7D170BC704730B4012102683E
:101F5000001D002A0FD00368C318446808300C42E3
:101F600002D04D466D1E64191D6825601B1D241D81
:101F7000121FECD0F8E730BC7047FEE710B50749F8
:101F800079441831064C7C44163404E0081D0A6874
:101F9000891888470100A142F8D110BD2C0000002B
:101FA0004C000000C51200086D140008B51C0008A4
:101FB000DD1C0008F51C0008151D0008511D000857
:101FC000E803000000127A0047FFFFFFB4000000A2
:101FD000280400200000000073FFFFFF2400000021
:101FE000C4FFFFFF000000200000000000F00BF81D
:101FF000002801D0FFF7C2FF002000BF00BFFFF79D
:102000000FFF00F002F80120704780B500F002F8E1
:1020100001BDFEE70746384600F002F8FBE7FEE7A1
:1020200080B500BF00BF024A11001820ABBEFBE71D
:1020300026000200704700B5FEE77047704780B584
:1020400000F002F801BDFEE702480068401C0149AB
:1020500008607047D0040020020304050607080941
:102060000A0B0C0D0E0F10100102030405060708E1
:10207000090A0B0C0D0E0F100000000000000000FC
:102080000102030406070809014880470148004788
:102090008D1D00089920000800BF00BF00BF00BFD1
:1020A000FFF7A4FFFEE7FEE7FEE7FEE7FEE7FEE739
:0C20B000FEE7FEE7FEE7FEE7FEE7FEE7C6
:040000050800209936
:00000001FF
